:100000000C9454000C9473000C9473000C947300C3
:100010000C9473000C9473000C9473000C94730094
:100020000C9473000C9473000C9473000C94730084
:100030000C9473000C949B010C9473000C9473004B
:100040000C9473000C9473000C9473000C94730064
:100050000C9473000C9473000C9473000C94730054
:100060000C9473000C9473000C9473000C94730044
:100070000C9473000C9473000C9473000C94730034
:100080000C9473000C9473000C947300A504AC04DE
:10009000E00414057B059B05F80589069006C40657
:1000A000F8065F077F07DC0711241FBECFEFD0E4FF
:1000B000DEBFCDBF11E0A0E0B1E0E8ECF5E100E08B
:1000C0000BBF02C007900D92A431B107D9F721E010
:1000D000A4E1B1E001C01D92AC35B207E1F70E9486
:1000E000C6080C94E20A0C940000CF93DF9300D072
:1000F0001F92CDB7DEB789837B836A8389818A307B
:1001000031F48A819B81BC018DE00E94750080ECF6
:1001100090E0FC018081882F90E080729927892BE4
:10012000B1F386EC90E02981FC01208380E090E02F
:100130000F900F900F90DF91CF910895CF93DF93A1
:10014000CDB7DEB781E890E02BE0FC01208388E8A2
:1001500090E02DE730E0FC01318320838FE690E0D2
:1001600022E0FC01208384E890E022E030E0FC0102
:100170003183208380910E0190910F01A091100195
:10018000B09111018093150190931601A09317016E
:10019000B09318018FE590E02FE530E0F901208160
:1001A0002068FC0120830000DF91CF910895CF9358
:1001B000DF93CDB7DEB781E890E0FC01108200004C
:1001C000DF91CF9108950F931F93CF93DF931F92E9
:1001D000CDB7DEB71982A4C08981282F30E0C901CC
:1001E000880F991F820F931F880F991F880F991FDF
:1001F0008A5D9E4FFC01208131814281538189813A
:10020000682F70E0CB01880F991F860F971F880F0A
:10021000991F880F991F8E5D9E4FFC0180819181EF
:10022000A281B381281739074A075B0708F449C040
:100230008981082F10E08981282F30E0C901880FBB
:10024000991F820F931F880F991F880F991F865D32
:100250009E4FFC01408151818981282F30E0C901E6
:10026000880F991F820F931F880F991F880F991F5E
:10027000805E9E4FFC0180819181FA0109959C016D
:10028000C801880F991F800F911F880F991F880F31
:10029000991F805E9E4FFC01318320838981282F26
:1002A00030E0C901880F991F820F931F880F991F93
:1002B000880F991F8A5D9E4FFC0110821182128265
:1002C00013828981682F70E08981282F30E0C9016D
:1002D000880F991F820F931F880F991F880F991FEE
:1002E0008A5D9E4FFC0180819181A281B3819C0136
:1002F000AD012C593F4F4F4F5F4FCB01880F991FD6
:10030000860F971F880F991F880F991F8A5D9E4F30
:10031000FC01208331834283538389818F5F8983EA
:100320008981863008F458CF00000F90DF91CF917B
:100330001F910F9108951F920F9200905F000F92EE
:10034000112400905B000F922F933F934F935F9384
:100350006F937F938F939F93AF93BF93EF93FF938D
:10036000CF93DF93CDB7DEB7809115019091160141
:10037000A0911701B09118010197A109B1098093CB
:10038000150190931601A0931701B0931801809165
:10039000150190911601A0911701B0911801892BB8
:1003A0008A2B8B2B91F40E94E30080910E01909197
:1003B0000F01A0911001B09111018093150190934C
:1003C0001601A0931701B09318010000DF91CF919F
:1003D000FF91EF91BF91AF919F918F917F916F911D
:1003E0005F914F913F912F910F9000925B000F9082
:1003F00000925F000F901F901895CF93DF9300D06D
:1004000000D0CDB7DEB769837A838B839C838981E3
:100410009A81AB81BC8180930E0190930F01A093D0
:100420001001B093110180910E0190910F01A091E4
:100430001001B09111018093150190931601A093C2
:100440001701B093180100000F900F900F900F90BC
:10045000DF91CF910895CF93DF9300D000D000D0EB
:10046000CDB7DEB78D836E838E818130E1F51A8240
:10047000198227C088E290E028E0FC01208388E20E
:1004800090E028E230E0F9012081422F2D81222FD7
:1004900030E0098002C0359527950A94E2F7217073
:1004A000242BFC01208388E290E028E230E0F9016F
:1004B00020812260FC01208389819A8101969A83A0
:1004C000898389819A810897ACF288E290E028E2DA
:1004D00030E0F90120812460FC01208388E290E073
:1004E000FC0110823EC08E818230D9F51C821B82B5
:1004F00027C08BE290E028E0FC0120838BE290E0B3
:100500002BE230E0F9012081422F2D81222F30E0B3
:100510000B8002C0359527950A94E2F72170242BB1
:10052000FC0120838BE290E02BE230E0F901208196
:100530002260FC0120838B819C8101969C838B83AC
:100540008B819C810897ACF28BE290E02BE230E04B
:10055000F90120812460FC0120838BE290E0FC0102
:100560001082000026960FB6F894DEBF0FBECDBFF6
:10057000DF91CF910895CF93DF9300D0CDB7DEB751
:100580009A83898389819A81009719F0019791F064
:1005900022C010921B0180911901813021F08091BD
:1005A0001A018130B9F481E090E09A838983109236
:1005B0001C0110C080911901813021F080911A0135
:1005C000813029F481E090E09A83898304C01A8203
:1005D000198201C0000089819A81009709F461C0E5
:1005E000019709F05FC080911C01882311F41092DB
:1005F0001B0180911C01813019F481E080931B0163
:1006000080911C01823019F483E080931B0180915A
:100610001C01833019F487E080931B0180911C0139
:10062000843019F48FE080931B0180911C01853088
:1006300019F48FE180931B0180911C01863019F41D
:100640008FE380931B0180911C01873019F48FE7A1
:1006500080931B0180911C01883019F48FEF8093E7
:100660001B0180911C01893011F410921B018091B3
:100670001C018A3019F48FEF80931B0180911C01BB
:100680008B3011F410921B0180911C018B3030F4DF
:1006900080911C018F5F80931C0104C010921C018B
:1006A00001C0000089819A810F900F90DF91CF9156
:1006B0000895CF93DF9300D0CDB7DEB79A838983B7
:1006C00089819A81009719F0019781F020C080916B
:1006D0001901823021F080911A018230B9F4109210
:1006E0001E0181E090E09A83898310C080911901F6
:1006F000823021F080911A01823029F481E090E06B
:100700009A83898304C01A82198201C000008981FA
:100710009A81009709F44DC0019709F04BC0809170
:100720001E01882311F410921D0180911E01813059
:1007300019F488E180931D0180911E01833019F422
:100740008CE380931D0180911E01843019F48EE7A3
:1007500080931D0180911E01853019F48FEF8093E5
:100760001D0180911E01863019F48EE780931D01D2
:1007700080911E01873019F48CE380931D018091D4
:100780001E01883019F488E180931D0180911E01BB
:10079000893011F410921D0180911E01893030F4CE
:1007A00080911E018F5F80931E0104C010921E0174
:1007B00001C0000089819A810F900F90DF91CF9145
:1007C0000895CF93DF9300D0CDB7DEB79A838983A6
:1007D00089819A81009719F00197A9F024C010929D
:1007E000120180911901833021F080911A01833028
:1007F00039F410921F0181E090E09A83898313C03D
:100800001A82198210C080911901833021F08091E1
:100810001A01833029F481E090E09A83898302C031
:100820001A821982000089819A81009709F469C0AF
:10083000019709F067C080911F01882319F481E0B6
:100840008093120180911F01813019F480E8809318
:10085000120180911F01823019F482E0809312010D
:1008600080911F01833019F480E4809312018091FC
:100870001F01843019F484E08093120180911F01DC
:10088000853019F480E28093120180911F01863037
:1008900019F488E08093120180911F01873019F4C8
:1008A00080E18093120180911F01883019F488E162
:1008B0008093120180911F01893011F4109212016E
:1008C00080911F018A3019F488E180931201809190
:1008D0001F018B3011F41092120180911F018C3096
:1008E00019F488E18093120180911F018C3030F45B
:1008F00080911F018F5F80931F0104C010921F0120
:1009000001C0000089819A810F900F90DF91CF91F3
:100910000895CF93DF9300D0CDB7DEB79A83898354
:1009200089819A81092E000CAA0BBB0B40E050E094
:1009300026E030E0841B950B2817390708F4B3C173
:100940008A5B9F4FFC010C94D90A1092190181E037
:1009500090E09A838983B2C180E290E0FC018081BB
:10096000882F90E081709927892B79F080E290E0C0
:10097000FC018081882F90E082709927892B29F0D3
:1009800081E090E09A83898390C180E290E0FC014D
:100990008081882F90E081709927892B09F085C18B
:1009A00080E290E0FC018081882F90E0827099279E
:1009B000892B09F07AC182E090E09A83898375C11E
:1009C00080E290E0FC018081882F90E0817099277F
:1009D000892B79F480E290E0FC018081882F90E0FF
:1009E00082709927892B29F482E090E09A83898389
:1009F0005EC180E290E0FC018081882F90E08170F0
:100A00009927892B09F453C180E290E0FC01808191
:100A1000882F90E082709927892B09F448C183E0E0
:100A200090E09A83898343C180E290E0FC01808159
:100A3000882F90E081709927892B79F480E290E0EB
:100A4000FC018081882F90E082709927892B29F4FE
:100A500084E090E09A8389834DC080E290E0FC01BD
:100A60008081882F90E081709927892B79F080E22E
:100A700090E0FC018081882F90E082709927892B7B
:100A800029F083E090E09A83898334C080E290E08B
:100A9000FC018081882F90E081709927892B79F063
:100AA00080E290E0FC018081882F90E0827099279D
:100AB000892B29F486E090E09A8389831BC080E229
:100AC00090E0FC018081882F90E081709927892B2C
:100AD00009F0EFC080E290E0FC018081882F90E077
:100AE00082709927892B09F4E4C085E090E09A830D
:100AF0008983DFC0DEC080E290E0FC018081882F26
:100B000090E081709927892B79F480E290E0FC01D4
:100B10008081882F90E082709927892B29F484E0C6
:100B200090E09A838983CAC081E090E09A838983A8
:100B300010921901C3C080E290E0FC018081882FEF
:100B400090E081709927892B89F480E290E0FC0184
:100B50008081882F90E082709927892B39F484E076
:100B600090E09A8389831092190141C080E290E05D
:100B7000FC018081882F90E081709927892B79F47E
:100B800080E290E0FC018081882F90E082709927BC
:100B9000892B29F085E090E09A83898328C080E240
:100BA00090E0FC018081882F90E081709927892B4B
:100BB00009F481C080E290E0FC018081882F90E000
:100BC00082709927892B09F476C083E090E09A839C
:100BD000898380911901833030F4809119018F5FEE
:100BE0008093190168C081E08093190164C063C0DB
:100BF00080E290E0FC018081882F90E0817099274D
:100C0000892B89F480E290E0FC018081882F90E0BC
:100C100082709927892B39F484E090E09A83898344
:100C2000109219013FC080E290E0FC018081882F82
:100C300090E081709927892B79F080E290E0FC01A7
:100C40008081882F90E082709927892B29F486E093
:100C500090E09A83898326C080E290E0FC01808145
:100C6000882F90E081709927892B39F180E290E0FC
:100C7000FC018081882F90E082709927892BE9F010
:100C800083E090E09A83898380911901823030F06B
:100C9000809119018150809319010FC083E08093E6
:100CA00019010BC00AC0000009C0000007C0000005
:100CB00005C0000003C0000001C0000089819A81C6
:100CC000019709F003C010921901000089819A81EF
:100CD0000F900F90DF91CF910895CF93DF9300D0C5
:100CE000CDB7DEB79A83898389819A81092E000C5A
:100CF000AA0BBB0B40E050E026E030E0841B950BD4
:100D00002817390708F4B3C1835B9F4FFC010C948B
:100D1000D90A10921A0181E090E09A838983B2C1C6
:100D200080E290E0FC018081882F90E08470992718
:100D3000892B79F080E290E0FC018081882F90E09F
:100D400088709927892B29F081E090E09A83898324
:100D500090C180E290E0FC018081882F90E0847057
:100D60009927892B09F085C180E290E0FC01808100
:100D7000882F90E088709927892B09F07AC182E04A
:100D800090E09A83898375C180E290E0FC018081C4
:100D9000882F90E084709927892B79F480E290E085
:100DA000FC018081882F90E088709927892B29F495
:100DB00082E090E09A8389835EC180E290E0FC014A
:100DC0008081882F90E084709927892B09F453C182
:100DD00080E290E0FC018081882F90E08870992764
:100DE000892B09F448C183E090E09A83898343C149
:100DF00080E290E0FC018081882F90E08470992748
:100E0000892B79F480E290E0FC018081882F90E0CA
:100E100088709927892B29F484E090E09A8389834C
:100E20004DC080E290E0FC018081882F90E08470CA
:100E30009927892B79F080E290E0FC018081882F4E
:100E400090E088709927892B29F083E090E09A83BD
:100E5000898334C080E290E0FC018081882F90E09B
:100E600084709927892B79F080E290E0FC018081E1
:100E7000882F90E088709927892B29F486E090E0EC
:100E80009A8389831BC080E290E0FC018081882FD7
:100E900090E084709927892B09F0EFC080E290E000
:100EA000FC018081882F90E088709927892B09F4B4
:100EB000E4C085E090E09A838983DFC0DEC080E2F1
:100EC00090E0FC018081882F90E084709927892B25
:100ED00079F480E290E0FC018081882F90E08870B6
:100EE0009927892B29F484E090E09A838983CAC0EA
:100EF00081E090E09A83898310921A01C3C080E256
:100F000090E0FC018081882F90E084709927892BE4
:100F100089F480E290E0FC018081882F90E0887065
:100F20009927892B39F484E090E09A838983109281
:100F30001A0141C080E290E0FC018081882F90E09E
:100F400084709927892B79F480E290E0FC018081FC
:100F5000882F90E088709927892B29F085E090E010
:100F60009A83898328C080E290E0FC018081882FE9
:100F700090E084709927892B09F481C080E290E089
:100F8000FC018081882F90E088709927892B09F4D3
:100F900076C083E090E09A83898380911A01833040
:100FA00030F480911A018F5F80931A0168C081E04C
:100FB00080931A0164C063C080E290E0FC018081EC
:100FC000882F90E084709927892B89F480E290E043
:100FD000FC018081882F90E088709927892B39F453
:100FE00084E090E09A83898310921A013FC080E2E6
:100FF00090E0FC018081882F90E084709927892BF4
:1010000079F080E290E0FC018081882F90E0887088
:101010009927892B29F486E090E09A83898326C05A
:1010200080E290E0FC018081882F90E08470992715
:10103000892B39F180E290E0FC018081882F90E0DB
:1010400088709927892BE9F083E090E09A8389835F
:1010500080911A01823030F080911A018150809382
:101060001A010FC083E080931A010BC00AC0000070
:1010700009C0000007C0000005C0000003C0000058
:1010800001C0000089819A81019709F003C0109284
:101090001A01000089819A810F900F90DF91CF9102
:1010A0000895CF93DF9300D0CDB7DEB79A838983BD
:1010B00089819A81009719F0019731F00AC081E087
:1010C00090E09A83898305C081E090E09A838983C8
:1010D000000089819A81009709F44EC0019709F0B8
:1010E0004EC080911901813031F480911B0161E083
:1010F0000E942B021CC080911901823031F4809132
:101100001D0161E00E942B0212C080911901833001
:1011100031F48091120161E00E942B0208C080919D
:101120001901882321F461E080E00E942B02809164
:101130001A01813029F480911B0162E00E942B0288
:1011400080911A01823029F480911D0162E00E9491
:101150002B0280911A01833031F48091120162E0F8
:101160000E942B020BC080911A01882339F462E09F
:1011700080E00E942B0202C0000001C000008981B3
:101180009A810F900F90DF91CF910895CF93DF93C5
:101190001F92CDB7DEB7198281E290E0FC01108288
:1011A00082E290E02FEFFC01208387E290E02FEFB6
:1011B000FC01208388E290E0FC0110828AE290E04A
:1011C0002FEFFC0120838BE290E0FC0110828981EB
:1011D000282F30E0C901880F991F820F931F880FB5
:1011E000991F880F991F805E9E4FFC01118210820B
:1011F0008981282F30E0C901880F991F820F931F22
:10120000880F991F880F991F9C012E5D3E4F8CE21D
:1012100091E0A0E0B0E0F90180839183A283B383E1
:101220008981282F30E0C901880F991F820F931FF1
:10123000880F991F880F991F8A5D9E4FFC011082AD
:101240001182128213828981282F30E0C901880F10
:10125000991F820F931F880F991F880F991F865D12
:101260009E4F2BEB32E0FC013183208389818F5F1D
:1012700089838981282F30E0C901880F991F820F47
:10128000931F880F991F880F991F805E9E4FFC0146
:10129000118210828981282F30E0C901880F991F9F
:1012A000820F931F880F991F880F991F9C012E5D35
:1012B0003E4F84E690E0A0E0B0E0F90180839183A6
:1012C000A283B3838981282F30E0C901880F991F39
:1012D000820F931F880F991F880F991F8A5D9E4F59
:1012E000FC0110821182128213828981282F30E042
:1012F000C901880F991F820F931F880F991F880FAC
:10130000991F865D9E4F29E533E0FC0131832083E0
:1013100089818F5F89838981282F30E0C901880FF7
:10132000991F820F931F880F991F880F991F805E46
:101330009E4FFC01118210828981282F30E0C90163
:10134000880F991F820F931F880F991F880F991F6D
:101350009C012E5D3E4F8CE291E0A0E0B0E0F901EF
:1013600080839183A283B3838981282F30E0C901D0
:10137000880F991F820F931F880F991F880F991F3D
:101380008A5D9E4FFC011082118212821382898134
:10139000282F30E0C901880F991F820F931F880FF3
:1013A000991F880F991F865D9E4F21EE33E0FC0147
:1013B0003183208389818F5F89838981282F30E061
:1013C000C901880F991F820F931F880F991F880FDB
:1013D000991F805E9E4FFC01118210828981282F07
:1013E00030E0C901880F991F820F931F880F991F42
:1013F000880F991F9C012E5D3E4F84E690E0A0E08F
:10140000B0E0F90180839183A283B3838981282F7F
:1014100030E0C901880F991F820F931F880F991F11
:10142000880F991F8A5D9E4FFC01108211821282E3
:1014300013828981282F30E0C901880F991F820FFC
:10144000931F880F991F880F991F865D9E4F29E86B
:1014500034E0FC013183208389818F5F8983898116
:10146000282F30E0C901880F991F820F931F880F22
:10147000991F880F991F805E9E4FFC011182108278
:101480008981282F30E0C901880F991F820F931F8F
:10149000880F991F880F991F9C012E5D3E4F84E68F
:1014A00090E0A0E0B0E0F90180839183A283B38350
:1014B0008981282F30E0C901880F991F820F931F5F
:1014C000880F991F880F991F8A5D9E4FFC0110821B
:1014D0001182128213828981282F30E0C901880F7E
:1014E000991F820F931F880F991F880F991F865D80
:1014F0009E4F2DE636E0FC013183208389818F5F8A
:1015000089838981282F30E0C901880F991F820FB4
:10151000931F880F991F880F991F805E9E4FFC01B3
:10152000118210828981282F30E0C901880F991F0C
:10153000820F931F880F991F880F991F9C012E5DA2
:101540003E4F84E690E0A0E0B0E0F9018083918313
:10155000A283B3838981282F30E0C901880F991FA6
:10156000820F931F880F991F880F991F8A5D9E4FC6
:10157000FC0110821182128213828981282F30E0AF
:10158000C901880F991F820F931F880F991F880F19
:10159000991F865D9E4F21E538E0FC013183208351
:1015A00064E670E080E090E00E94FD010E949E00F1
:1015B000FFCFEE0FFF1F0024001C0BBE0790F6911B
:0815C000E02D0994F894FFCF1F
:1015C800000000020000000075000000000001009B
:0415D80000005500BA
:00000001FF
